{
  "_format": "hh-sol-artifact-1",
  "contractName": "M2Token",
  "sourceName": "contracts/M2Token.sol",
  "abi": [
    {
      "inputs": [],
      "stateMutability": "nonpayable",
      "type": "constructor"
    },
    {
      "inputs": [],
      "name": "AccessControlBadConfirmation",
      "type": "error"
    },
    {
      "inputs": [
        {
          "internalType": "address",
          "name": "account",
          "type": "address"
        },
        {
          "internalType": "bytes32",
          "name": "neededRole",
          "type": "bytes32"
        }
      ],
      "name": "AccessControlUnauthorizedAccount",
      "type": "error"
    },
    {
      "inputs": [
        {
          "internalType": "address",
          "name": "sender",
          "type": "address"
        },
        {
          "internalType": "uint256",
          "name": "balance",
          "type": "uint256"
        },
        {
          "internalType": "uint256",
          "name": "needed",
          "type": "uint256"
        },
        {
          "internalType": "uint256",
          "name": "tokenId",
          "type": "uint256"
        }
      ],
      "name": "ERC1155InsufficientBalance",
      "type": "error"
    },
    {
      "inputs": [
        {
          "internalType": "address",
          "name": "approver",
          "type": "address"
        }
      ],
      "name": "ERC1155InvalidApprover",
      "type": "error"
    },
    {
      "inputs": [
        {
          "internalType": "uint256",
          "name": "idsLength",
          "type": "uint256"
        },
        {
          "internalType": "uint256",
          "name": "valuesLength",
          "type": "uint256"
        }
      ],
      "name": "ERC1155InvalidArrayLength",
      "type": "error"
    },
    {
      "inputs": [
        {
          "internalType": "address",
          "name": "operator",
          "type": "address"
        }
      ],
      "name": "ERC1155InvalidOperator",
      "type": "error"
    },
    {
      "inputs": [
        {
          "internalType": "address",
          "name": "receiver",
          "type": "address"
        }
      ],
      "name": "ERC1155InvalidReceiver",
      "type": "error"
    },
    {
      "inputs": [
        {
          "internalType": "address",
          "name": "sender",
          "type": "address"
        }
      ],
      "name": "ERC1155InvalidSender",
      "type": "error"
    },
    {
      "inputs": [
        {
          "internalType": "address",
          "name": "operator",
          "type": "address"
        },
        {
          "internalType": "address",
          "name": "owner",
          "type": "address"
        }
      ],
      "name": "ERC1155MissingApprovalForAll",
      "type": "error"
    },
    {
      "inputs": [],
      "name": "EnforcedPause",
      "type": "error"
    },
    {
      "inputs": [],
      "name": "ExpectedPause",
      "type": "error"
    },
    {
      "anonymous": false,
      "inputs": [
        {
          "indexed": true,
          "internalType": "address",
          "name": "account",
          "type": "address"
        },
        {
          "indexed": true,
          "internalType": "address",
          "name": "operator",
          "type": "address"
        },
        {
          "indexed": false,
          "internalType": "bool",
          "name": "approved",
          "type": "bool"
        }
      ],
      "name": "ApprovalForAll",
      "type": "event"
    },
    {
      "anonymous": false,
      "inputs": [
        {
          "indexed": false,
          "internalType": "address",
          "name": "account",
          "type": "address"
        }
      ],
      "name": "Paused",
      "type": "event"
    },
    {
      "anonymous": false,
      "inputs": [
        {
          "indexed": true,
          "internalType": "bytes32",
          "name": "role",
          "type": "bytes32"
        },
        {
          "indexed": true,
          "internalType": "bytes32",
          "name": "previousAdminRole",
          "type": "bytes32"
        },
        {
          "indexed": true,
          "internalType": "bytes32",
          "name": "newAdminRole",
          "type": "bytes32"
        }
      ],
      "name": "RoleAdminChanged",
      "type": "event"
    },
    {
      "anonymous": false,
      "inputs": [
        {
          "indexed": true,
          "internalType": "bytes32",
          "name": "role",
          "type": "bytes32"
        },
        {
          "indexed": true,
          "internalType": "address",
          "name": "account",
          "type": "address"
        },
        {
          "indexed": true,
          "internalType": "address",
          "name": "sender",
          "type": "address"
        }
      ],
      "name": "RoleGranted",
      "type": "event"
    },
    {
      "anonymous": false,
      "inputs": [
        {
          "indexed": true,
          "internalType": "bytes32",
          "name": "role",
          "type": "bytes32"
        },
        {
          "indexed": true,
          "internalType": "address",
          "name": "account",
          "type": "address"
        },
        {
          "indexed": true,
          "internalType": "address",
          "name": "sender",
          "type": "address"
        }
      ],
      "name": "RoleRevoked",
      "type": "event"
    },
    {
      "anonymous": false,
      "inputs": [
        {
          "indexed": true,
          "internalType": "address",
          "name": "user",
          "type": "address"
        },
        {
          "indexed": true,
          "internalType": "uint256",
          "name": "idProyecto",
          "type": "uint256"
        },
        {
          "indexed": false,
          "internalType": "uint256",
          "name": "cantidad",
          "type": "uint256"
        }
      ],
      "name": "TokenCanjeado",
      "type": "event"
    },
    {
      "anonymous": false,
      "inputs": [
        {
          "indexed": true,
          "internalType": "address",
          "name": "to",
          "type": "address"
        },
        {
          "indexed": true,
          "internalType": "uint256",
          "name": "idProyecto",
          "type": "uint256"
        },
        {
          "indexed": false,
          "internalType": "uint256",
          "name": "cantidad",
          "type": "uint256"
        },
        {
          "indexed": true,
          "internalType": "bytes32",
          "name": "remitoHash",
          "type": "bytes32"
        }
      ],
      "name": "TokenEmitido",
      "type": "event"
    },
    {
      "anonymous": false,
      "inputs": [
        {
          "indexed": true,
          "internalType": "address",
          "name": "operator",
          "type": "address"
        },
        {
          "indexed": true,
          "internalType": "address",
          "name": "from",
          "type": "address"
        },
        {
          "indexed": true,
          "internalType": "address",
          "name": "to",
          "type": "address"
        },
        {
          "indexed": false,
          "internalType": "uint256[]",
          "name": "ids",
          "type": "uint256[]"
        },
        {
          "indexed": false,
          "internalType": "uint256[]",
          "name": "values",
          "type": "uint256[]"
        }
      ],
      "name": "TransferBatch",
      "type": "event"
    },
    {
      "anonymous": false,
      "inputs": [
        {
          "indexed": true,
          "internalType": "address",
          "name": "operator",
          "type": "address"
        },
        {
          "indexed": true,
          "internalType": "address",
          "name": "from",
          "type": "address"
        },
        {
          "indexed": true,
          "internalType": "address",
          "name": "to",
          "type": "address"
        },
        {
          "indexed": false,
          "internalType": "uint256",
          "name": "id",
          "type": "uint256"
        },
        {
          "indexed": false,
          "internalType": "uint256",
          "name": "value",
          "type": "uint256"
        }
      ],
      "name": "TransferSingle",
      "type": "event"
    },
    {
      "anonymous": false,
      "inputs": [
        {
          "indexed": false,
          "internalType": "string",
          "name": "value",
          "type": "string"
        },
        {
          "indexed": true,
          "internalType": "uint256",
          "name": "id",
          "type": "uint256"
        }
      ],
      "name": "URI",
      "type": "event"
    },
    {
      "anonymous": false,
      "inputs": [
        {
          "indexed": false,
          "internalType": "address",
          "name": "account",
          "type": "address"
        }
      ],
      "name": "Unpaused",
      "type": "event"
    },
    {
      "inputs": [],
      "name": "DEFAULT_ADMIN_ROLE",
      "outputs": [
        {
          "internalType": "bytes32",
          "name": "",
          "type": "bytes32"
        }
      ],
      "stateMutability": "view",
      "type": "function"
    },
    {
      "inputs": [],
      "name": "MINTER_ROLE",
      "outputs": [
        {
          "internalType": "bytes32",
          "name": "",
          "type": "bytes32"
        }
      ],
      "stateMutability": "view",
      "type": "function"
    },
    {
      "inputs": [],
      "name": "PAUSER_ROLE",
      "outputs": [
        {
          "internalType": "bytes32",
          "name": "",
          "type": "bytes32"
        }
      ],
      "stateMutability": "view",
      "type": "function"
    },
    {
      "inputs": [
        {
          "internalType": "address",
          "name": "account",
          "type": "address"
        },
        {
          "internalType": "uint256",
          "name": "id",
          "type": "uint256"
        }
      ],
      "name": "balanceOf",
      "outputs": [
        {
          "internalType": "uint256",
          "name": "",
          "type": "uint256"
        }
      ],
      "stateMutability": "view",
      "type": "function"
    },
    {
      "inputs": [
        {
          "internalType": "address[]",
          "name": "accounts",
          "type": "address[]"
        },
        {
          "internalType": "uint256[]",
          "name": "ids",
          "type": "uint256[]"
        }
      ],
      "name": "balanceOfBatch",
      "outputs": [
        {
          "internalType": "uint256[]",
          "name": "",
          "type": "uint256[]"
        }
      ],
      "stateMutability": "view",
      "type": "function"
    },
    {
      "inputs": [
        {
          "internalType": "address",
          "name": "account",
          "type": "address"
        },
        {
          "internalType": "uint256",
          "name": "id",
          "type": "uint256"
        },
        {
          "internalType": "uint256",
          "name": "value",
          "type": "uint256"
        }
      ],
      "name": "burn",
      "outputs": [],
      "stateMutability": "nonpayable",
      "type": "function"
    },
    {
      "inputs": [
        {
          "internalType": "address",
          "name": "account",
          "type": "address"
        },
        {
          "internalType": "uint256[]",
          "name": "ids",
          "type": "uint256[]"
        },
        {
          "internalType": "uint256[]",
          "name": "values",
          "type": "uint256[]"
        }
      ],
      "name": "burnBatch",
      "outputs": [],
      "stateMutability": "nonpayable",
      "type": "function"
    },
    {
      "inputs": [
        {
          "internalType": "uint256",
          "name": "idProyecto",
          "type": "uint256"
        },
        {
          "internalType": "uint256",
          "name": "amount",
          "type": "uint256"
        }
      ],
      "name": "canjear",
      "outputs": [],
      "stateMutability": "nonpayable",
      "type": "function"
    },
    {
      "inputs": [
        {
          "internalType": "uint256",
          "name": "id",
          "type": "uint256"
        }
      ],
      "name": "exists",
      "outputs": [
        {
          "internalType": "bool",
          "name": "",
          "type": "bool"
        }
      ],
      "stateMutability": "view",
      "type": "function"
    },
    {
      "inputs": [
        {
          "internalType": "bytes32",
          "name": "role",
          "type": "bytes32"
        }
      ],
      "name": "getRoleAdmin",
      "outputs": [
        {
          "internalType": "bytes32",
          "name": "",
          "type": "bytes32"
        }
      ],
      "stateMutability": "view",
      "type": "function"
    },
    {
      "inputs": [
        {
          "internalType": "bytes32",
          "name": "role",
          "type": "bytes32"
        },
        {
          "internalType": "address",
          "name": "account",
          "type": "address"
        }
      ],
      "name": "grantRole",
      "outputs": [],
      "stateMutability": "nonpayable",
      "type": "function"
    },
    {
      "inputs": [
        {
          "internalType": "bytes32",
          "name": "role",
          "type": "bytes32"
        },
        {
          "internalType": "address",
          "name": "account",
          "type": "address"
        }
      ],
      "name": "hasRole",
      "outputs": [
        {
          "internalType": "bool",
          "name": "",
          "type": "bool"
        }
      ],
      "stateMutability": "view",
      "type": "function"
    },
    {
      "inputs": [
        {
          "internalType": "address",
          "name": "account",
          "type": "address"
        },
        {
          "internalType": "address",
          "name": "operator",
          "type": "address"
        }
      ],
      "name": "isApprovedForAll",
      "outputs": [
        {
          "internalType": "bool",
          "name": "",
          "type": "bool"
        }
      ],
      "stateMutability": "view",
      "type": "function"
    },
    {
      "inputs": [
        {
          "internalType": "address",
          "name": "to",
          "type": "address"
        },
        {
          "internalType": "uint256[]",
          "name": "idsProyectos",
          "type": "uint256[]"
        },
        {
          "internalType": "uint256[]",
          "name": "amounts",
          "type": "uint256[]"
        },
        {
          "internalType": "bytes32[]",
          "name": "remitoHashes",
          "type": "bytes32[]"
        }
      ],
      "name": "mintBatchRemito",
      "outputs": [],
      "stateMutability": "nonpayable",
      "type": "function"
    },
    {
      "inputs": [
        {
          "internalType": "address",
          "name": "to",
          "type": "address"
        },
        {
          "internalType": "uint256",
          "name": "idProyecto",
          "type": "uint256"
        },
        {
          "internalType": "uint256",
          "name": "amount",
          "type": "uint256"
        },
        {
          "internalType": "bytes32",
          "name": "remitoHash",
          "type": "bytes32"
        }
      ],
      "name": "mintRemito",
      "outputs": [],
      "stateMutability": "nonpayable",
      "type": "function"
    },
    {
      "inputs": [],
      "name": "pause",
      "outputs": [],
      "stateMutability": "nonpayable",
      "type": "function"
    },
    {
      "inputs": [],
      "name": "paused",
      "outputs": [
        {
          "internalType": "bool",
          "name": "",
          "type": "bool"
        }
      ],
      "stateMutability": "view",
      "type": "function"
    },
    {
      "inputs": [
        {
          "internalType": "bytes32",
          "name": "",
          "type": "bytes32"
        }
      ],
      "name": "remitosProcesados",
      "outputs": [
        {
          "internalType": "bool",
          "name": "",
          "type": "bool"
        }
      ],
      "stateMutability": "view",
      "type": "function"
    },
    {
      "inputs": [
        {
          "internalType": "bytes32",
          "name": "role",
          "type": "bytes32"
        },
        {
          "internalType": "address",
          "name": "callerConfirmation",
          "type": "address"
        }
      ],
      "name": "renounceRole",
      "outputs": [],
      "stateMutability": "nonpayable",
      "type": "function"
    },
    {
      "inputs": [
        {
          "internalType": "bytes32",
          "name": "role",
          "type": "bytes32"
        },
        {
          "internalType": "address",
          "name": "account",
          "type": "address"
        }
      ],
      "name": "revokeRole",
      "outputs": [],
      "stateMutability": "nonpayable",
      "type": "function"
    },
    {
      "inputs": [
        {
          "internalType": "address",
          "name": "from",
          "type": "address"
        },
        {
          "internalType": "address",
          "name": "to",
          "type": "address"
        },
        {
          "internalType": "uint256[]",
          "name": "ids",
          "type": "uint256[]"
        },
        {
          "internalType": "uint256[]",
          "name": "values",
          "type": "uint256[]"
        },
        {
          "internalType": "bytes",
          "name": "data",
          "type": "bytes"
        }
      ],
      "name": "safeBatchTransferFrom",
      "outputs": [],
      "stateMutability": "nonpayable",
      "type": "function"
    },
    {
      "inputs": [
        {
          "internalType": "address",
          "name": "from",
          "type": "address"
        },
        {
          "internalType": "address",
          "name": "to",
          "type": "address"
        },
        {
          "internalType": "uint256",
          "name": "id",
          "type": "uint256"
        },
        {
          "internalType": "uint256",
          "name": "value",
          "type": "uint256"
        },
        {
          "internalType": "bytes",
          "name": "data",
          "type": "bytes"
        }
      ],
      "name": "safeTransferFrom",
      "outputs": [],
      "stateMutability": "nonpayable",
      "type": "function"
    },
    {
      "inputs": [
        {
          "internalType": "address",
          "name": "operator",
          "type": "address"
        },
        {
          "internalType": "bool",
          "name": "approved",
          "type": "bool"
        }
      ],
      "name": "setApprovalForAll",
      "outputs": [],
      "stateMutability": "nonpayable",
      "type": "function"
    },
    {
      "inputs": [
        {
          "internalType": "bytes4",
          "name": "interfaceId",
          "type": "bytes4"
        }
      ],
      "name": "supportsInterface",
      "outputs": [
        {
          "internalType": "bool",
          "name": "",
          "type": "bool"
        }
      ],
      "stateMutability": "view",
      "type": "function"
    },
    {
      "inputs": [],
      "name": "totalSupply",
      "outputs": [
        {
          "internalType": "uint256",
          "name": "",
          "type": "uint256"
        }
      ],
      "stateMutability": "view",
      "type": "function"
    },
    {
      "inputs": [
        {
          "internalType": "uint256",
          "name": "id",
          "type": "uint256"
        }
      ],
      "name": "totalSupply",
      "outputs": [
        {
          "internalType": "uint256",
          "name": "",
          "type": "uint256"
        }
      ],
      "stateMutability": "view",
      "type": "function"
    },
    {
      "inputs": [],
      "name": "unpause",
      "outputs": [],
      "stateMutability": "nonpayable",
      "type": "function"
    },
    {
      "inputs": [
        {
          "internalType": "uint256",
          "name": "",
          "type": "uint256"
        }
      ],
      "name": "uri",
      "outputs": [
        {
          "internalType": "string",
          "name": "",
          "type": "string"
        }
      ],
      "stateMutability": "view",
      "type": "function"
    }
  ],
  "bytecode": "0x60806040523480156200001157600080fd5b506040518060600160405280602a815260200162002350602a91396200003781620000a6565b5062000045600033620000b8565b50620000727f9f2df0fed2c77648de5860a4cc508cd0818c85b8b8a1ab4ceeef8d981c8956a633620000b8565b506200009f7f65d7a28e3265b37a6474929f336521b332c1681b933f6cb9f3376673440d862a33620000b8565b50620002dc565b6002620000b4828262000210565b5050565b60008281526003602090815260408083206001600160a01b038516845290915281205460ff16620001615760008381526003602090815260408083206001600160a01b03861684529091529020805460ff19166001179055620001183390565b6001600160a01b0316826001600160a01b0316847f2f8788117e7eff1d82e926ec794901d17c78024a50270940304540a733656f0d60405160405180910390a450600162000165565b5060005b92915050565b634e487b7160e01b600052604160045260246000fd5b600181811c908216806200019657607f821691505b602082108103620001b757634e487b7160e01b600052602260045260246000fd5b50919050565b601f8211156200020b57600081815260208120601f850160051c81016020861015620001e65750805b601f850160051c820191505b818110156200020757828155600101620001f2565b5050505b505050565b81516001600160401b038111156200022c576200022c6200016b565b62000244816200023d845462000181565b84620001bd565b602080601f8311600181146200027c5760008415620002635750858301515b600019600386901b1c1916600185901b17855562000207565b600085815260208120601f198616915b82811015620002ad578886015182559484019460019091019084016200028c565b5085821015620002cc5787850151600019600388901b60f8161c191681555b5050505050600190811b01905550565b61206480620002ec6000396000f3fe608060405234801561001057600080fd5b50600436106101c35760003560e01c80636b20c454116100f9578063d539139311610097578063e63ab1e911610071578063e63ab1e9146103eb578063e985e9c514610412578063f242432a14610425578063f5298aca1461043857600080fd5b8063d53913931461039e578063d547741f146103c5578063ddb8d19e146103d857600080fd5b8063a217fddf116100d3578063a217fddf14610340578063a22cb46514610348578063aed20c9c1461035b578063bd85b0391461037e57600080fd5b80636b20c454146103125780638456cb591461032557806391d148541461032d57600080fd5b80632eb2c2d6116101665780633f4ba83a116101405780633f4ba83a146102bd5780634e1273f4146102c55780634f558e79146102e55780635c975abb1461030757600080fd5b80632eb2c2d6146102845780632f2ff15d1461029757806336568abe146102aa57600080fd5b806318160ddd116101a257806318160ddd146102315780631dd5d71214610239578063248a9ca31461024e57806324b8f8151461027157600080fd5b8062fdd58e146101c857806301ffc9a7146101ee5780630e89341c14610211575b600080fd5b6101db6101d63660046117f4565b61044b565b6040519081526020015b60405180910390f35b6102016101fc366004611834565b610473565b60405190151581526020016101e5565b61022461021f366004611858565b61047e565b6040516101e591906118b7565b6006546101db565b61024c6102473660046118ca565b610512565b005b6101db61025c366004611858565b60009081526003602052604090206001015490565b61024c61027f3660046119d9565b610684565b61024c610292366004611b36565b6108d7565b61024c6102a5366004611be0565b61093e565b61024c6102b8366004611be0565b610969565b61024c6109a1565b6102d86102d3366004611c0c565b6109d6565b6040516101e59190611d07565b6102016102f3366004611858565b600090815260056020526040902054151590565b60045460ff16610201565b61024c610320366004611d1a565b610aab565b61024c610b0a565b61020161033b366004611be0565b610b3c565b6101db600081565b61024c610356366004611d8e565b610b67565b610201610369366004611858565b60076020526000908152604090205460ff1681565b6101db61038c366004611858565b60009081526005602052604090205490565b6101db7f9f2df0fed2c77648de5860a4cc508cd0818c85b8b8a1ab4ceeef8d981c8956a681565b61024c6103d3366004611be0565b610b76565b61024c6103e6366004611dca565b610b9b565b6101db7f65d7a28e3265b37a6474929f336521b332c1681b933f6cb9f3376673440d862a81565b610201610420366004611dec565b610c37565b61024c610433366004611e16565b610c65565b61024c610446366004611e7b565b610cc4565b6000818152602081815260408083206001600160a01b03861684529091529020545b92915050565b600061046d82610cfa565b60606002805461048d90611eae565b80601f01602080910402602001604051908101604052809291908181526020018280546104b990611eae565b80156105065780601f106104db57610100808354040283529160200191610506565b820191906000526020600020905b8154815290600101906020018083116104e957829003601f168201915b50505050509050919050565b7f9f2df0fed2c77648de5860a4cc508cd0818c85b8b8a1ab4ceeef8d981c8956a661053c81610d1f565b610544610d29565b60008281526007602052604090205460ff16156105a85760405162461bcd60e51b815260206004820152601a60248201527f4572726f723a2052656d69746f2079612070726f63657361646f00000000000060448201526064015b60405180910390fd5b600083116106035760405162461bcd60e51b815260206004820152602260248201527f4572726f723a2043616e7469646164206465626520736572206d61796f722061604482015261020360f41b606482015260840161059f565b6000828152600760209081526040808320805460ff191660011790558051918201905290815261063890869086908690610d4f565b8184866001600160a01b03167f9a7bca0819e107d940dfba378aa17a5b5594232b7a21641bf1eaa8772cb5e0028660405161067591815260200190565b60405180910390a45050505050565b7f9f2df0fed2c77648de5860a4cc508cd0818c85b8b8a1ab4ceeef8d981c8956a66106ae81610d1f565b6106b6610d29565b82518451146106fb5760405162461bcd60e51b81526020600482015260116024820152704c6f6e676974756420696e76616c69646160781b604482015260640161059f565b81518451146107405760405162461bcd60e51b81526020600482015260116024820152704c6f6e676974756420696e76616c69646160781b604482015260640161059f565b60005b82518110156108b4576007600084838151811061076257610762611ee8565b60209081029190910181015182528101919091526040016000205460ff16156107cd5760405162461bcd60e51b815260206004820152601a60248201527f556e2072656d69746f207961206675652070726f63657361646f000000000000604482015260640161059f565b6001600760008584815181106107e5576107e5611ee8565b6020026020010151815260200190815260200160002060006101000a81548160ff02191690831515021790555082818151811061082457610824611ee8565b602002602001015185828151811061083e5761083e611ee8565b6020026020010151876001600160a01b03167f9a7bca0819e107d940dfba378aa17a5b5594232b7a21641bf1eaa8772cb5e00287858151811061088357610883611ee8565b602002602001015160405161089a91815260200190565b60405180910390a4806108ac81611f14565b915050610743565b506108d085858560405180602001604052806000815250610dac565b5050505050565b336001600160a01b03861681148015906108f857506108f68682610c37565b155b156109295760405163711bec9160e11b81526001600160a01b0380831660048301528716602482015260440161059f565b6109368686868686610de4565b505050505050565b60008281526003602052604090206001015461095981610d1f565b6109638383610e44565b50505050565b6001600160a01b03811633146109925760405163334bd91960e11b815260040160405180910390fd5b61099c8282610ed8565b505050565b7f65d7a28e3265b37a6474929f336521b332c1681b933f6cb9f3376673440d862a6109cb81610d1f565b6109d3610f45565b50565b60608151835114610a075781518351604051635b05999160e01b81526004810192909252602482015260440161059f565b6000835167ffffffffffffffff811115610a2357610a23611903565b604051908082528060200260200182016040528015610a4c578160200160208202803683370190505b50905060005b8451811015610aa357602080820286010151610a769060208084028701015161044b565b828281518110610a8857610a88611ee8565b6020908102919091010152610a9c81611f14565b9050610a52565b509392505050565b6001600160a01b0383163314801590610acb5750610ac98333610c37565b155b15610aff57335b60405163711bec9160e11b81526001600160a01b039182166004820152908416602482015260440161059f565b61099c838383610f97565b7f65d7a28e3265b37a6474929f336521b332c1681b933f6cb9f3376673440d862a610b3481610d1f565b6109d3610fdd565b60009182526003602090815260408084206001600160a01b0393909316845291905290205460ff1690565b610b7233838361101a565b5050565b600082815260036020526040902060010154610b9181610d1f565b6109638383610ed8565b610ba3610d29565b80610bae338461044b565b1015610bf15760405162461bcd60e51b815260206004820152601260248201527153616c646f20696e737566696369656e746560701b604482015260640161059f565b610bfc338383610cc4565b604051818152829033907fc8d442c7d21934933baa47e4eac731f530f83abd012b69249e132fad449b3cfc9060200160405180910390a35050565b6001600160a01b03918216600090815260016020908152604080832093909416825291909152205460ff1690565b336001600160a01b0386168114801590610c865750610c848682610c37565b155b15610cb75760405163711bec9160e11b81526001600160a01b0380831660048301528716602482015260440161059f565b61093686868686866110b0565b6001600160a01b0383163314801590610ce45750610ce28333610c37565b155b15610cef5733610ad2565b61099c83838361113e565b60006001600160e01b03198216637965db0b60e01b148061046d575061046d826111a6565b6109d381336111f6565b60045460ff1615610d4d5760405163d93c066560e01b815260040160405180910390fd5b565b6001600160a01b038416610d7957604051632bfa23e760e11b81526000600482015260240161059f565b6040805160018082526020820186905281830190815260608201859052608082019092529061093660008784848761122f565b6001600160a01b038416610dd657604051632bfa23e760e11b81526000600482015260240161059f565b61096360008585858561122f565b6001600160a01b038416610e0e57604051632bfa23e760e11b81526000600482015260240161059f565b6001600160a01b038516610e3757604051626a0d4560e21b81526000600482015260240161059f565b6108d0858585858561122f565b6000610e508383610b3c565b610ed05760008381526003602090815260408083206001600160a01b03861684529091529020805460ff19166001179055610e883390565b6001600160a01b0316826001600160a01b0316847f2f8788117e7eff1d82e926ec794901d17c78024a50270940304540a733656f0d60405160405180910390a450600161046d565b50600061046d565b6000610ee48383610b3c565b15610ed05760008381526003602090815260408083206001600160a01b0386168085529252808320805460ff1916905551339286917ff6391f5c32d9c69d2a47ea670b442974b53935d1edc7fd64eb21e047a839171b9190a450600161046d565b610f4d611282565b6004805460ff191690557f5db9ee0a495bf2e6ff9c91a7834c1ba4fdd244a5e8aa4e537bd38aeae4b073aa335b6040516001600160a01b03909116815260200160405180910390a1565b6001600160a01b038316610fc057604051626a0d4560e21b81526000600482015260240161059f565b61099c83600084846040518060200160405280600081525061122f565b610fe5610d29565b6004805460ff191660011790557f62e78cea01bee320cd4e420270b5ea74000d11b0c9f74754ebdbfc544b05a258610f7a3390565b6001600160a01b0382166110435760405162ced3e160e81b81526000600482015260240161059f565b6001600160a01b03838116600081815260016020908152604080832094871680845294825291829020805460ff191686151590811790915591519182527f17307eab39ab6107e8899845ad3d59bd9653f200f220920489ca2b5937696c31910160405180910390a3505050565b6001600160a01b0384166110da57604051632bfa23e760e11b81526000600482015260240161059f565b6001600160a01b03851661110357604051626a0d4560e21b81526000600482015260240161059f565b60408051600180825260208201869052818301908152606082018590526080820190925290611135878784848761122f565b50505050505050565b6001600160a01b03831661116757604051626a0d4560e21b81526000600482015260240161059f565b604080516001808252602082018590528183019081526060820184905260a082019092526000608082018181529192916108d09187918590859061122f565b60006001600160e01b03198216636cdb3d1360e11b14806111d757506001600160e01b031982166303a24d0760e21b145b8061046d57506301ffc9a760e01b6001600160e01b031983161461046d565b6112008282610b3c565b610b725760405163e2517d3f60e01b81526001600160a01b03821660048201526024810183905260440161059f565b61123b858585856112a5565b6001600160a01b038416156108d05782513390600103611274576020848101519084015161126d8389898585896112b1565b5050610936565b6109368187878787876113d5565b60045460ff16610d4d57604051638dfc202b60e01b815260040160405180910390fd5b610963848484846114be565b6001600160a01b0384163b156109365760405163f23a6e6160e01b81526001600160a01b0385169063f23a6e61906112f59089908990889088908890600401611f2d565b6020604051808303816000875af1925050508015611330575060408051601f3d908101601f1916820190925261132d91810190611f72565b60015b611399573d80801561135e576040519150601f19603f3d011682016040523d82523d6000602084013e611363565b606091505b50805160000361139157604051632bfa23e760e11b81526001600160a01b038616600482015260240161059f565b805160208201fd5b6001600160e01b0319811663f23a6e6160e01b1461113557604051632bfa23e760e11b81526001600160a01b038616600482015260240161059f565b6001600160a01b0384163b156109365760405163bc197c8160e01b81526001600160a01b0385169063bc197c81906114199089908990889088908890600401611f8f565b6020604051808303816000875af1925050508015611454575060408051601f3d908101601f1916820190925261145191810190611f72565b60015b611482573d80801561135e576040519150601f19603f3d011682016040523d82523d6000602084013e611363565b6001600160e01b0319811663bc197c8160e01b1461113557604051632bfa23e760e11b81526001600160a01b038616600482015260240161059f565b6114ca848484846115bb565b6001600160a01b038416611553576000805b83518110156115395760208181028481018201519086018201516000908152600590925260408220805491928392611515908490611fed565b9091555061152590508184611fed565b9250508061153290611f14565b90506114dc565b50806006600082825461154c9190611fed565b9091555050505b6001600160a01b038316610963576000805b83518110156115aa5760208181028481018201519086018201516000908152600590925260409091208054829003905591909101906115a381611f14565b9050611565565b506006805491909103905550505050565b6115c3610d29565b6109638484848480518251146115f95781518151604051635b05999160e01b81526004810192909252602482015260440161059f565b3360005b8351811015611708576020818102858101820151908501909101516001600160a01b038816156116b0576000828152602081815260408083206001600160a01b038c16845290915290205481811015611689576040516303dee4c560e01b81526001600160a01b038a16600482015260248101829052604481018390526064810184905260840161059f565b6000838152602081815260408083206001600160a01b038d16845290915290209082900390555b6001600160a01b038716156116f5576000828152602081815260408083206001600160a01b038b168452909152812080548392906116ef908490611fed565b90915550505b50508061170190611f14565b90506115fd565b5082516001036117895760208301516000906020840151909150856001600160a01b0316876001600160a01b0316846001600160a01b03167fc3d58168c5ae7397731d063d5bbf3d657854427343f4c083240f7aacaa2d0f62858560405161177a929190918252602082015260400190565b60405180910390a450506108d0565b836001600160a01b0316856001600160a01b0316826001600160a01b03167f4a39dc06d4c0dbc64b70af90fd698a233a518aa5d07e595d983b8c0526c8f7fb8686604051610675929190612000565b80356001600160a01b03811681146117ef57600080fd5b919050565b6000806040838503121561180757600080fd5b611810836117d8565b946020939093013593505050565b6001600160e01b0319811681146109d357600080fd5b60006020828403121561184657600080fd5b81356118518161181e565b9392505050565b60006020828403121561186a57600080fd5b5035919050565b6000815180845260005b818110156118975760208185018101518683018201520161187b565b506000602082860101526020601f19601f83011685010191505092915050565b6020815260006118516020830184611871565b600080600080608085870312156118e057600080fd5b6118e9856117d8565b966020860135965060408601359560600135945092505050565b634e487b7160e01b600052604160045260246000fd5b604051601f8201601f1916810167ffffffffffffffff8111828210171561194257611942611903565b604052919050565b600067ffffffffffffffff82111561196457611964611903565b5060051b60200190565b600082601f83011261197f57600080fd5b8135602061199461198f8361194a565b611919565b82815260059290921b840181019181810190868411156119b357600080fd5b8286015b848110156119ce57803583529183019183016119b7565b509695505050505050565b600080600080608085870312156119ef57600080fd5b6119f8856117d8565b935060208086013567ffffffffffffffff80821115611a1657600080fd5b611a2289838a0161196e565b95506040880135915080821115611a3857600080fd5b611a4489838a0161196e565b94506060880135915080821115611a5a57600080fd5b508601601f81018813611a6c57600080fd5b8035611a7a61198f8261194a565b81815260059190911b8201830190838101908a831115611a9957600080fd5b928401925b82841015611ab757833582529284019290840190611a9e565b979a9699509497505050505050565b600082601f830112611ad757600080fd5b813567ffffffffffffffff811115611af157611af1611903565b611b04601f8201601f1916602001611919565b818152846020838601011115611b1957600080fd5b816020850160208301376000918101602001919091529392505050565b600080600080600060a08688031215611b4e57600080fd5b611b57866117d8565b9450611b65602087016117d8565b9350604086013567ffffffffffffffff80821115611b8257600080fd5b611b8e89838a0161196e565b94506060880135915080821115611ba457600080fd5b611bb089838a0161196e565b93506080880135915080821115611bc657600080fd5b50611bd388828901611ac6565b9150509295509295909350565b60008060408385031215611bf357600080fd5b82359150611c03602084016117d8565b90509250929050565b60008060408385031215611c1f57600080fd5b823567ffffffffffffffff80821115611c3757600080fd5b818501915085601f830112611c4b57600080fd5b81356020611c5b61198f8361194a565b82815260059290921b84018101918181019089841115611c7a57600080fd5b948201945b83861015611c9f57611c90866117d8565b82529482019490820190611c7f565b96505086013592505080821115611cb557600080fd5b50611cc28582860161196e565b9150509250929050565b600081518084526020808501945080840160005b83811015611cfc57815187529582019590820190600101611ce0565b509495945050505050565b6020815260006118516020830184611ccc565b600080600060608486031215611d2f57600080fd5b611d38846117d8565b9250602084013567ffffffffffffffff80821115611d5557600080fd5b611d618783880161196e565b93506040860135915080821115611d7757600080fd5b50611d848682870161196e565b9150509250925092565b60008060408385031215611da157600080fd5b611daa836117d8565b915060208301358015158114611dbf57600080fd5b809150509250929050565b60008060408385031215611ddd57600080fd5b50508035926020909101359150565b60008060408385031215611dff57600080fd5b611e08836117d8565b9150611c03602084016117d8565b600080600080600060a08688031215611e2e57600080fd5b611e37866117d8565b9450611e45602087016117d8565b93506040860135925060608601359150608086013567ffffffffffffffff811115611e6f57600080fd5b611bd388828901611ac6565b600080600060608486031215611e9057600080fd5b611e99846117d8565b95602085013595506040909401359392505050565b600181811c90821680611ec257607f821691505b602082108103611ee257634e487b7160e01b600052602260045260246000fd5b50919050565b634e487b7160e01b600052603260045260246000fd5b634e487b7160e01b600052601160045260246000fd5b600060018201611f2657611f26611efe565b5060010190565b6001600160a01b03868116825285166020820152604081018490526060810183905260a060808201819052600090611f6790830184611871565b979650505050505050565b600060208284031215611f8457600080fd5b81516118518161181e565b6001600160a01b0386811682528516602082015260a060408201819052600090611fbb90830186611ccc565b8281036060840152611fcd8186611ccc565b90508281036080840152611fe18185611871565b98975050505050505050565b8082018082111561046d5761046d611efe565b6040815260006120136040830185611ccc565b82810360208401526120258185611ccc565b9594505050505056fea26469706673582212201095b41b6f12fd30a0eff54b4186c79f80c56a8a6d065d5f6bc80d7ea481d80c64736f6c6343000814003368747470733a2f2f6170692e6d32746f6b656e2e636f6d2f6d657461646174612f7b69647d2e6a736f6e",
  "linkReferences": {},
  "deployedLinkReferences": {}
}