{
  "_format": "hh-sol-artifact-1",
  "contractName": "M2Token",
  "sourceName": "contracts/M2Token.sol",
  "abi": [
    {
      "inputs": [],
      "stateMutability": "nonpayable",
      "type": "constructor"
    },
    {
      "inputs": [],
      "name": "AccessControlBadConfirmation",
      "type": "error"
    },
    {
      "inputs": [
        {
          "internalType": "address",
          "name": "account",
          "type": "address"
        },
        {
          "internalType": "bytes32",
          "name": "neededRole",
          "type": "bytes32"
        }
      ],
      "name": "AccessControlUnauthorizedAccount",
      "type": "error"
    },
    {
      "inputs": [
        {
          "internalType": "address",
          "name": "sender",
          "type": "address"
        },
        {
          "internalType": "uint256",
          "name": "balance",
          "type": "uint256"
        },
        {
          "internalType": "uint256",
          "name": "needed",
          "type": "uint256"
        },
        {
          "internalType": "uint256",
          "name": "tokenId",
          "type": "uint256"
        }
      ],
      "name": "ERC1155InsufficientBalance",
      "type": "error"
    },
    {
      "inputs": [
        {
          "internalType": "address",
          "name": "approver",
          "type": "address"
        }
      ],
      "name": "ERC1155InvalidApprover",
      "type": "error"
    },
    {
      "inputs": [
        {
          "internalType": "uint256",
          "name": "idsLength",
          "type": "uint256"
        },
        {
          "internalType": "uint256",
          "name": "valuesLength",
          "type": "uint256"
        }
      ],
      "name": "ERC1155InvalidArrayLength",
      "type": "error"
    },
    {
      "inputs": [
        {
          "internalType": "address",
          "name": "operator",
          "type": "address"
        }
      ],
      "name": "ERC1155InvalidOperator",
      "type": "error"
    },
    {
      "inputs": [
        {
          "internalType": "address",
          "name": "receiver",
          "type": "address"
        }
      ],
      "name": "ERC1155InvalidReceiver",
      "type": "error"
    },
    {
      "inputs": [
        {
          "internalType": "address",
          "name": "sender",
          "type": "address"
        }
      ],
      "name": "ERC1155InvalidSender",
      "type": "error"
    },
    {
      "inputs": [
        {
          "internalType": "address",
          "name": "operator",
          "type": "address"
        },
        {
          "internalType": "address",
          "name": "owner",
          "type": "address"
        }
      ],
      "name": "ERC1155MissingApprovalForAll",
      "type": "error"
    },
    {
      "inputs": [],
      "name": "EnforcedPause",
      "type": "error"
    },
    {
      "inputs": [],
      "name": "ExpectedPause",
      "type": "error"
    },
    {
      "anonymous": false,
      "inputs": [
        {
          "indexed": true,
          "internalType": "address",
          "name": "account",
          "type": "address"
        },
        {
          "indexed": true,
          "internalType": "address",
          "name": "operator",
          "type": "address"
        },
        {
          "indexed": false,
          "internalType": "bool",
          "name": "approved",
          "type": "bool"
        }
      ],
      "name": "ApprovalForAll",
      "type": "event"
    },
    {
      "anonymous": false,
      "inputs": [
        {
          "indexed": false,
          "internalType": "address",
          "name": "account",
          "type": "address"
        }
      ],
      "name": "Paused",
      "type": "event"
    },
    {
      "anonymous": false,
      "inputs": [
        {
          "indexed": true,
          "internalType": "bytes32",
          "name": "role",
          "type": "bytes32"
        },
        {
          "indexed": true,
          "internalType": "bytes32",
          "name": "previousAdminRole",
          "type": "bytes32"
        },
        {
          "indexed": true,
          "internalType": "bytes32",
          "name": "newAdminRole",
          "type": "bytes32"
        }
      ],
      "name": "RoleAdminChanged",
      "type": "event"
    },
    {
      "anonymous": false,
      "inputs": [
        {
          "indexed": true,
          "internalType": "bytes32",
          "name": "role",
          "type": "bytes32"
        },
        {
          "indexed": true,
          "internalType": "address",
          "name": "account",
          "type": "address"
        },
        {
          "indexed": true,
          "internalType": "address",
          "name": "sender",
          "type": "address"
        }
      ],
      "name": "RoleGranted",
      "type": "event"
    },
    {
      "anonymous": false,
      "inputs": [
        {
          "indexed": true,
          "internalType": "bytes32",
          "name": "role",
          "type": "bytes32"
        },
        {
          "indexed": true,
          "internalType": "address",
          "name": "account",
          "type": "address"
        },
        {
          "indexed": true,
          "internalType": "address",
          "name": "sender",
          "type": "address"
        }
      ],
      "name": "RoleRevoked",
      "type": "event"
    },
    {
      "anonymous": false,
      "inputs": [
        {
          "indexed": true,
          "internalType": "address",
          "name": "user",
          "type": "address"
        },
        {
          "indexed": true,
          "internalType": "uint256",
          "name": "idProyecto",
          "type": "uint256"
        },
        {
          "indexed": false,
          "internalType": "uint256",
          "name": "cantidad",
          "type": "uint256"
        }
      ],
      "name": "TokenCanjeado",
      "type": "event"
    },
    {
      "anonymous": false,
      "inputs": [
        {
          "indexed": true,
          "internalType": "address",
          "name": "to",
          "type": "address"
        },
        {
          "indexed": true,
          "internalType": "uint256",
          "name": "idProyecto",
          "type": "uint256"
        },
        {
          "indexed": false,
          "internalType": "uint256",
          "name": "cantidad",
          "type": "uint256"
        },
        {
          "indexed": true,
          "internalType": "bytes32",
          "name": "remitoHash",
          "type": "bytes32"
        }
      ],
      "name": "TokenEmitido",
      "type": "event"
    },
    {
      "anonymous": false,
      "inputs": [
        {
          "indexed": true,
          "internalType": "address",
          "name": "operator",
          "type": "address"
        },
        {
          "indexed": true,
          "internalType": "address",
          "name": "from",
          "type": "address"
        },
        {
          "indexed": true,
          "internalType": "address",
          "name": "to",
          "type": "address"
        },
        {
          "indexed": false,
          "internalType": "uint256[]",
          "name": "ids",
          "type": "uint256[]"
        },
        {
          "indexed": false,
          "internalType": "uint256[]",
          "name": "values",
          "type": "uint256[]"
        }
      ],
      "name": "TransferBatch",
      "type": "event"
    },
    {
      "anonymous": false,
      "inputs": [
        {
          "indexed": true,
          "internalType": "address",
          "name": "operator",
          "type": "address"
        },
        {
          "indexed": true,
          "internalType": "address",
          "name": "from",
          "type": "address"
        },
        {
          "indexed": true,
          "internalType": "address",
          "name": "to",
          "type": "address"
        },
        {
          "indexed": false,
          "internalType": "uint256",
          "name": "id",
          "type": "uint256"
        },
        {
          "indexed": false,
          "internalType": "uint256",
          "name": "value",
          "type": "uint256"
        }
      ],
      "name": "TransferSingle",
      "type": "event"
    },
    {
      "anonymous": false,
      "inputs": [
        {
          "indexed": false,
          "internalType": "string",
          "name": "value",
          "type": "string"
        },
        {
          "indexed": true,
          "internalType": "uint256",
          "name": "id",
          "type": "uint256"
        }
      ],
      "name": "URI",
      "type": "event"
    },
    {
      "anonymous": false,
      "inputs": [
        {
          "indexed": false,
          "internalType": "address",
          "name": "account",
          "type": "address"
        }
      ],
      "name": "Unpaused",
      "type": "event"
    },
    {
      "inputs": [],
      "name": "DEFAULT_ADMIN_ROLE",
      "outputs": [
        {
          "internalType": "bytes32",
          "name": "",
          "type": "bytes32"
        }
      ],
      "stateMutability": "view",
      "type": "function"
    },
    {
      "inputs": [],
      "name": "MINTER_ROLE",
      "outputs": [
        {
          "internalType": "bytes32",
          "name": "",
          "type": "bytes32"
        }
      ],
      "stateMutability": "view",
      "type": "function"
    },
    {
      "inputs": [],
      "name": "PAUSER_ROLE",
      "outputs": [
        {
          "internalType": "bytes32",
          "name": "",
          "type": "bytes32"
        }
      ],
      "stateMutability": "view",
      "type": "function"
    },
    {
      "inputs": [
        {
          "internalType": "address",
          "name": "account",
          "type": "address"
        },
        {
          "internalType": "uint256",
          "name": "id",
          "type": "uint256"
        },
        {
          "internalType": "uint256",
          "name": "amount",
          "type": "uint256"
        }
      ],
      "name": "adminBurn",
      "outputs": [],
      "stateMutability": "nonpayable",
      "type": "function"
    },
    {
      "inputs": [
        {
          "internalType": "address",
          "name": "account",
          "type": "address"
        },
        {
          "internalType": "uint256",
          "name": "id",
          "type": "uint256"
        }
      ],
      "name": "balanceOf",
      "outputs": [
        {
          "internalType": "uint256",
          "name": "",
          "type": "uint256"
        }
      ],
      "stateMutability": "view",
      "type": "function"
    },
    {
      "inputs": [
        {
          "internalType": "address[]",
          "name": "accounts",
          "type": "address[]"
        },
        {
          "internalType": "uint256[]",
          "name": "ids",
          "type": "uint256[]"
        }
      ],
      "name": "balanceOfBatch",
      "outputs": [
        {
          "internalType": "uint256[]",
          "name": "",
          "type": "uint256[]"
        }
      ],
      "stateMutability": "view",
      "type": "function"
    },
    {
      "inputs": [
        {
          "internalType": "address",
          "name": "account",
          "type": "address"
        },
        {
          "internalType": "uint256",
          "name": "id",
          "type": "uint256"
        },
        {
          "internalType": "uint256",
          "name": "value",
          "type": "uint256"
        }
      ],
      "name": "burn",
      "outputs": [],
      "stateMutability": "nonpayable",
      "type": "function"
    },
    {
      "inputs": [
        {
          "internalType": "address",
          "name": "account",
          "type": "address"
        },
        {
          "internalType": "uint256[]",
          "name": "ids",
          "type": "uint256[]"
        },
        {
          "internalType": "uint256[]",
          "name": "values",
          "type": "uint256[]"
        }
      ],
      "name": "burnBatch",
      "outputs": [],
      "stateMutability": "nonpayable",
      "type": "function"
    },
    {
      "inputs": [
        {
          "internalType": "uint256",
          "name": "idProyecto",
          "type": "uint256"
        },
        {
          "internalType": "uint256",
          "name": "amount",
          "type": "uint256"
        }
      ],
      "name": "canjear",
      "outputs": [],
      "stateMutability": "nonpayable",
      "type": "function"
    },
    {
      "inputs": [
        {
          "internalType": "uint256",
          "name": "id",
          "type": "uint256"
        }
      ],
      "name": "exists",
      "outputs": [
        {
          "internalType": "bool",
          "name": "",
          "type": "bool"
        }
      ],
      "stateMutability": "view",
      "type": "function"
    },
    {
      "inputs": [
        {
          "internalType": "bytes32",
          "name": "role",
          "type": "bytes32"
        }
      ],
      "name": "getRoleAdmin",
      "outputs": [
        {
          "internalType": "bytes32",
          "name": "",
          "type": "bytes32"
        }
      ],
      "stateMutability": "view",
      "type": "function"
    },
    {
      "inputs": [
        {
          "internalType": "bytes32",
          "name": "role",
          "type": "bytes32"
        },
        {
          "internalType": "address",
          "name": "account",
          "type": "address"
        }
      ],
      "name": "grantRole",
      "outputs": [],
      "stateMutability": "nonpayable",
      "type": "function"
    },
    {
      "inputs": [
        {
          "internalType": "bytes32",
          "name": "role",
          "type": "bytes32"
        },
        {
          "internalType": "address",
          "name": "account",
          "type": "address"
        }
      ],
      "name": "hasRole",
      "outputs": [
        {
          "internalType": "bool",
          "name": "",
          "type": "bool"
        }
      ],
      "stateMutability": "view",
      "type": "function"
    },
    {
      "inputs": [
        {
          "internalType": "address",
          "name": "account",
          "type": "address"
        },
        {
          "internalType": "address",
          "name": "operator",
          "type": "address"
        }
      ],
      "name": "isApprovedForAll",
      "outputs": [
        {
          "internalType": "bool",
          "name": "",
          "type": "bool"
        }
      ],
      "stateMutability": "view",
      "type": "function"
    },
    {
      "inputs": [
        {
          "internalType": "address",
          "name": "to",
          "type": "address"
        },
        {
          "internalType": "uint256[]",
          "name": "idsProyectos",
          "type": "uint256[]"
        },
        {
          "internalType": "uint256[]",
          "name": "amounts",
          "type": "uint256[]"
        },
        {
          "internalType": "bytes32[]",
          "name": "remitoHashes",
          "type": "bytes32[]"
        }
      ],
      "name": "mintBatchRemito",
      "outputs": [],
      "stateMutability": "nonpayable",
      "type": "function"
    },
    {
      "inputs": [
        {
          "internalType": "address",
          "name": "to",
          "type": "address"
        },
        {
          "internalType": "uint256",
          "name": "idProyecto",
          "type": "uint256"
        },
        {
          "internalType": "uint256",
          "name": "amount",
          "type": "uint256"
        },
        {
          "internalType": "bytes32",
          "name": "remitoHash",
          "type": "bytes32"
        }
      ],
      "name": "mintRemito",
      "outputs": [],
      "stateMutability": "nonpayable",
      "type": "function"
    },
    {
      "inputs": [],
      "name": "pause",
      "outputs": [],
      "stateMutability": "nonpayable",
      "type": "function"
    },
    {
      "inputs": [],
      "name": "paused",
      "outputs": [
        {
          "internalType": "bool",
          "name": "",
          "type": "bool"
        }
      ],
      "stateMutability": "view",
      "type": "function"
    },
    {
      "inputs": [
        {
          "internalType": "bytes32",
          "name": "",
          "type": "bytes32"
        }
      ],
      "name": "remitosProcesados",
      "outputs": [
        {
          "internalType": "bool",
          "name": "",
          "type": "bool"
        }
      ],
      "stateMutability": "view",
      "type": "function"
    },
    {
      "inputs": [
        {
          "internalType": "bytes32",
          "name": "role",
          "type": "bytes32"
        },
        {
          "internalType": "address",
          "name": "callerConfirmation",
          "type": "address"
        }
      ],
      "name": "renounceRole",
      "outputs": [],
      "stateMutability": "nonpayable",
      "type": "function"
    },
    {
      "inputs": [
        {
          "internalType": "bytes32",
          "name": "role",
          "type": "bytes32"
        },
        {
          "internalType": "address",
          "name": "account",
          "type": "address"
        }
      ],
      "name": "revokeRole",
      "outputs": [],
      "stateMutability": "nonpayable",
      "type": "function"
    },
    {
      "inputs": [
        {
          "internalType": "address",
          "name": "from",
          "type": "address"
        },
        {
          "internalType": "address",
          "name": "to",
          "type": "address"
        },
        {
          "internalType": "uint256[]",
          "name": "ids",
          "type": "uint256[]"
        },
        {
          "internalType": "uint256[]",
          "name": "values",
          "type": "uint256[]"
        },
        {
          "internalType": "bytes",
          "name": "data",
          "type": "bytes"
        }
      ],
      "name": "safeBatchTransferFrom",
      "outputs": [],
      "stateMutability": "nonpayable",
      "type": "function"
    },
    {
      "inputs": [
        {
          "internalType": "address",
          "name": "from",
          "type": "address"
        },
        {
          "internalType": "address",
          "name": "to",
          "type": "address"
        },
        {
          "internalType": "uint256",
          "name": "id",
          "type": "uint256"
        },
        {
          "internalType": "uint256",
          "name": "value",
          "type": "uint256"
        },
        {
          "internalType": "bytes",
          "name": "data",
          "type": "bytes"
        }
      ],
      "name": "safeTransferFrom",
      "outputs": [],
      "stateMutability": "nonpayable",
      "type": "function"
    },
    {
      "inputs": [
        {
          "internalType": "address",
          "name": "operator",
          "type": "address"
        },
        {
          "internalType": "bool",
          "name": "approved",
          "type": "bool"
        }
      ],
      "name": "setApprovalForAll",
      "outputs": [],
      "stateMutability": "nonpayable",
      "type": "function"
    },
    {
      "inputs": [
        {
          "internalType": "bytes4",
          "name": "interfaceId",
          "type": "bytes4"
        }
      ],
      "name": "supportsInterface",
      "outputs": [
        {
          "internalType": "bool",
          "name": "",
          "type": "bool"
        }
      ],
      "stateMutability": "view",
      "type": "function"
    },
    {
      "inputs": [],
      "name": "totalSupply",
      "outputs": [
        {
          "internalType": "uint256",
          "name": "",
          "type": "uint256"
        }
      ],
      "stateMutability": "view",
      "type": "function"
    },
    {
      "inputs": [
        {
          "internalType": "uint256",
          "name": "id",
          "type": "uint256"
        }
      ],
      "name": "totalSupply",
      "outputs": [
        {
          "internalType": "uint256",
          "name": "",
          "type": "uint256"
        }
      ],
      "stateMutability": "view",
      "type": "function"
    },
    {
      "inputs": [],
      "name": "unpause",
      "outputs": [],
      "stateMutability": "nonpayable",
      "type": "function"
    },
    {
      "inputs": [
        {
          "internalType": "uint256",
          "name": "",
          "type": "uint256"
        }
      ],
      "name": "uri",
      "outputs": [
        {
          "internalType": "string",
          "name": "",
          "type": "string"
        }
      ],
      "stateMutability": "view",
      "type": "function"
    }
  ],
  "bytecode": "0x60806040523480156200001157600080fd5b506040518060600160405280602a8152602001620023cd602a91396200003781620000a6565b5062000045600033620000b8565b50620000727f9f2df0fed2c77648de5860a4cc508cd0818c85b8b8a1ab4ceeef8d981c8956a633620000b8565b506200009f7f65d7a28e3265b37a6474929f336521b332c1681b933f6cb9f3376673440d862a33620000b8565b50620002dc565b6002620000b4828262000210565b5050565b60008281526003602090815260408083206001600160a01b038516845290915281205460ff16620001615760008381526003602090815260408083206001600160a01b03861684529091529020805460ff19166001179055620001183390565b6001600160a01b0316826001600160a01b0316847f2f8788117e7eff1d82e926ec794901d17c78024a50270940304540a733656f0d60405160405180910390a450600162000165565b5060005b92915050565b634e487b7160e01b600052604160045260246000fd5b600181811c908216806200019657607f821691505b602082108103620001b757634e487b7160e01b600052602260045260246000fd5b50919050565b601f8211156200020b57600081815260208120601f850160051c81016020861015620001e65750805b601f850160051c820191505b818110156200020757828155600101620001f2565b5050505b505050565b81516001600160401b038111156200022c576200022c6200016b565b62000244816200023d845462000181565b84620001bd565b602080601f8311600181146200027c5760008415620002635750858301515b600019600386901b1c1916600185901b17855562000207565b600085815260208120601f198616915b82811015620002ad578886015182559484019460019091019084016200028c565b5085821015620002cc5787850151600019600388901b60f8161c191681555b5050505050600190811b01905550565b6120e180620002ec6000396000f3fe608060405234801561001057600080fd5b50600436106101ce5760003560e01c80635c975abb11610104578063bd85b039116100a2578063e63ab1e911610071578063e63ab1e9146103f7578063e985e9c51461041e578063f242432a14610431578063f5298aca1461044457600080fd5b8063bd85b0391461039c578063d5391393146103bc578063d547741f146103d1578063ddb8d19e146103e457600080fd5b806391d14854116100de57806391d148541461034b578063a217fddf1461035e578063a22cb46514610366578063aed20c9c1461037957600080fd5b80635c975abb146103255780636b20c454146103305780638456cb591461034357600080fd5b806324b8f8151161017157806336568abe1161014b57806336568abe146102c85780633f4ba83a146102db5780634e1273f4146102e35780634f558e791461030357600080fd5b806324b8f8151461028f5780632eb2c2d6146102a25780632f2ff15d146102b557600080fd5b806318160ddd116101ad57806318160ddd1461023c5780631b56a5be146102445780631dd5d71214610259578063248a9ca31461026c57600080fd5b8062fdd58e146101d357806301ffc9a7146101f95780630e89341c1461021c575b600080fd5b6101e66101e1366004611851565b610457565b6040519081526020015b60405180910390f35b61020c610207366004611891565b61047f565b60405190151581526020016101f0565b61022f61022a3660046118b5565b61048a565b6040516101f09190611914565b6006546101e6565b610257610252366004611927565b61051e565b005b61025761026736600461195a565b610593565b6101e661027a3660046118b5565b60009081526003602052604090206001015490565b61025761029d366004611a69565b6106f3565b6102576102b0366004611bc6565b610934565b6102576102c3366004611c70565b61099b565b6102576102d6366004611c70565b6109c6565b6102576109fe565b6102f66102f1366004611c9c565b610a33565b6040516101f09190611d97565b61020c6103113660046118b5565b600090815260056020526040902054151590565b60045460ff1661020c565b61025761033e366004611daa565b610b08565b610257610b67565b61020c610359366004611c70565b610b99565b6101e6600081565b610257610374366004611e1e565b610bc4565b61020c6103873660046118b5565b60076020526000908152604090205460ff1681565b6101e66103aa3660046118b5565b60009081526005602052604090205490565b6101e660008051602061208c83398151915281565b6102576103df366004611c70565b610bd3565b6102576103f2366004611e5a565b610bf8565b6101e67f65d7a28e3265b37a6474929f336521b332c1681b933f6cb9f3376673440d862a81565b61020c61042c366004611e7c565b610c94565b61025761043f366004611ea6565b610cc2565b610257610452366004611927565b610d21565b6000818152602081815260408083206001600160a01b03861684529091529020545b92915050565b600061047982610d57565b60606002805461049990611f0b565b80601f01602080910402602001604051908101604052809291908181526020018280546104c590611f0b565b80156105125780601f106104e757610100808354040283529160200191610512565b820191906000526020600020905b8154815290600101906020018083116104f557829003601f168201915b50505050509050919050565b60008051602061208c83398151915261053681610d7c565b61053e610d86565b610549848484610dac565b82846001600160a01b03167fc8d442c7d21934933baa47e4eac731f530f83abd012b69249e132fad449b3cfc8460405161058591815260200190565b60405180910390a350505050565b60008051602061208c8339815191526105ab81610d7c565b6105b3610d86565b60008281526007602052604090205460ff16156106175760405162461bcd60e51b815260206004820152601a60248201527f4572726f723a2052656d69746f2079612070726f63657361646f00000000000060448201526064015b60405180910390fd5b600083116106725760405162461bcd60e51b815260206004820152602260248201527f4572726f723a2043616e7469646164206465626520736572206d61796f722061604482015261020360f41b606482015260840161060e565b6000828152600760209081526040808320805460ff19166001179055805191820190529081526106a790869086908690610e14565b8184866001600160a01b03167f9a7bca0819e107d940dfba378aa17a5b5594232b7a21641bf1eaa8772cb5e002866040516106e491815260200190565b60405180910390a45050505050565b60008051602061208c83398151915261070b81610d7c565b610713610d86565b82518451146107585760405162461bcd60e51b81526020600482015260116024820152704c6f6e676974756420696e76616c69646160781b604482015260640161060e565b815184511461079d5760405162461bcd60e51b81526020600482015260116024820152704c6f6e676974756420696e76616c69646160781b604482015260640161060e565b60005b825181101561091157600760008483815181106107bf576107bf611f45565b60209081029190910181015182528101919091526040016000205460ff161561082a5760405162461bcd60e51b815260206004820152601a60248201527f556e2072656d69746f207961206675652070726f63657361646f000000000000604482015260640161060e565b60016007600085848151811061084257610842611f45565b6020026020010151815260200190815260200160002060006101000a81548160ff02191690831515021790555082818151811061088157610881611f45565b602002602001015185828151811061089b5761089b611f45565b6020026020010151876001600160a01b03167f9a7bca0819e107d940dfba378aa17a5b5594232b7a21641bf1eaa8772cb5e0028785815181106108e0576108e0611f45565b60200260200101516040516108f791815260200190565b60405180910390a48061090981611f71565b9150506107a0565b5061092d85858560405180602001604052806000815250610e71565b5050505050565b336001600160a01b038616811480159061095557506109538682610c94565b155b156109865760405163711bec9160e11b81526001600160a01b0380831660048301528716602482015260440161060e565b6109938686868686610ea9565b505050505050565b6000828152600360205260409020600101546109b681610d7c565b6109c08383610f09565b50505050565b6001600160a01b03811633146109ef5760405163334bd91960e11b815260040160405180910390fd5b6109f98282610f9d565b505050565b7f65d7a28e3265b37a6474929f336521b332c1681b933f6cb9f3376673440d862a610a2881610d7c565b610a3061100a565b50565b60608151835114610a645781518351604051635b05999160e01b81526004810192909252602482015260440161060e565b6000835167ffffffffffffffff811115610a8057610a80611993565b604051908082528060200260200182016040528015610aa9578160200160208202803683370190505b50905060005b8451811015610b0057602080820286010151610ad390602080840287010151610457565b828281518110610ae557610ae5611f45565b6020908102919091010152610af981611f71565b9050610aaf565b509392505050565b6001600160a01b0383163314801590610b285750610b268333610c94565b155b15610b5c57335b60405163711bec9160e11b81526001600160a01b039182166004820152908416602482015260440161060e565b6109f983838361105c565b7f65d7a28e3265b37a6474929f336521b332c1681b933f6cb9f3376673440d862a610b9181610d7c565b610a306110a2565b60009182526003602090815260408084206001600160a01b0393909316845291905290205460ff1690565b610bcf3383836110df565b5050565b600082815260036020526040902060010154610bee81610d7c565b6109c08383610f9d565b610c00610d86565b80610c0b3384610457565b1015610c4e5760405162461bcd60e51b815260206004820152601260248201527153616c646f20696e737566696369656e746560701b604482015260640161060e565b610c59338383610d21565b604051818152829033907fc8d442c7d21934933baa47e4eac731f530f83abd012b69249e132fad449b3cfc9060200160405180910390a35050565b6001600160a01b03918216600090815260016020908152604080832093909416825291909152205460ff1690565b336001600160a01b0386168114801590610ce35750610ce18682610c94565b155b15610d145760405163711bec9160e11b81526001600160a01b0380831660048301528716602482015260440161060e565b6109938686868686611175565b6001600160a01b0383163314801590610d415750610d3f8333610c94565b155b15610d4c5733610b2f565b6109f9838383610dac565b60006001600160e01b03198216637965db0b60e01b1480610479575061047982611203565b610a308133611253565b60045460ff1615610daa5760405163d93c066560e01b815260040160405180910390fd5b565b6001600160a01b038316610dd557604051626a0d4560e21b81526000600482015260240161060e565b604080516001808252602082018590528183019081526060820184905260a0820190925260006080820181815291929161092d9187918590859061128c565b6001600160a01b038416610e3e57604051632bfa23e760e11b81526000600482015260240161060e565b6040805160018082526020820186905281830190815260608201859052608082019092529061099360008784848761128c565b6001600160a01b038416610e9b57604051632bfa23e760e11b81526000600482015260240161060e565b6109c060008585858561128c565b6001600160a01b038416610ed357604051632bfa23e760e11b81526000600482015260240161060e565b6001600160a01b038516610efc57604051626a0d4560e21b81526000600482015260240161060e565b61092d858585858561128c565b6000610f158383610b99565b610f955760008381526003602090815260408083206001600160a01b03861684529091529020805460ff19166001179055610f4d3390565b6001600160a01b0316826001600160a01b0316847f2f8788117e7eff1d82e926ec794901d17c78024a50270940304540a733656f0d60405160405180910390a4506001610479565b506000610479565b6000610fa98383610b99565b15610f955760008381526003602090815260408083206001600160a01b0386168085529252808320805460ff1916905551339286917ff6391f5c32d9c69d2a47ea670b442974b53935d1edc7fd64eb21e047a839171b9190a4506001610479565b6110126112df565b6004805460ff191690557f5db9ee0a495bf2e6ff9c91a7834c1ba4fdd244a5e8aa4e537bd38aeae4b073aa335b6040516001600160a01b03909116815260200160405180910390a1565b6001600160a01b03831661108557604051626a0d4560e21b81526000600482015260240161060e565b6109f983600084846040518060200160405280600081525061128c565b6110aa610d86565b6004805460ff191660011790557f62e78cea01bee320cd4e420270b5ea74000d11b0c9f74754ebdbfc544b05a25861103f3390565b6001600160a01b0382166111085760405162ced3e160e81b81526000600482015260240161060e565b6001600160a01b03838116600081815260016020908152604080832094871680845294825291829020805460ff191686151590811790915591519182527f17307eab39ab6107e8899845ad3d59bd9653f200f220920489ca2b5937696c31910160405180910390a3505050565b6001600160a01b03841661119f57604051632bfa23e760e11b81526000600482015260240161060e565b6001600160a01b0385166111c857604051626a0d4560e21b81526000600482015260240161060e565b604080516001808252602082018690528183019081526060820185905260808201909252906111fa878784848761128c565b50505050505050565b60006001600160e01b03198216636cdb3d1360e11b148061123457506001600160e01b031982166303a24d0760e21b145b8061047957506301ffc9a760e01b6001600160e01b0319831614610479565b61125d8282610b99565b610bcf5760405163e2517d3f60e01b81526001600160a01b03821660048201526024810183905260440161060e565b61129885858585611302565b6001600160a01b0384161561092d57825133906001036112d157602084810151908401516112ca83898985858961130e565b5050610993565b610993818787878787611432565b60045460ff16610daa57604051638dfc202b60e01b815260040160405180910390fd5b6109c08484848461151b565b6001600160a01b0384163b156109935760405163f23a6e6160e01b81526001600160a01b0385169063f23a6e61906113529089908990889088908890600401611f8a565b6020604051808303816000875af192505050801561138d575060408051601f3d908101601f1916820190925261138a91810190611fcf565b60015b6113f6573d8080156113bb576040519150601f19603f3d011682016040523d82523d6000602084013e6113c0565b606091505b5080516000036113ee57604051632bfa23e760e11b81526001600160a01b038616600482015260240161060e565b805160208201fd5b6001600160e01b0319811663f23a6e6160e01b146111fa57604051632bfa23e760e11b81526001600160a01b038616600482015260240161060e565b6001600160a01b0384163b156109935760405163bc197c8160e01b81526001600160a01b0385169063bc197c81906114769089908990889088908890600401611fec565b6020604051808303816000875af19250505080156114b1575060408051601f3d908101601f191682019092526114ae91810190611fcf565b60015b6114df573d8080156113bb576040519150601f19603f3d011682016040523d82523d6000602084013e6113c0565b6001600160e01b0319811663bc197c8160e01b146111fa57604051632bfa23e760e11b81526001600160a01b038616600482015260240161060e565b61152784848484611618565b6001600160a01b0384166115b0576000805b8351811015611596576020818102848101820151908601820151600090815260059092526040822080549192839261157290849061204a565b909155506115829050818461204a565b9250508061158f90611f71565b9050611539565b5080600660008282546115a9919061204a565b9091555050505b6001600160a01b0383166109c0576000805b835181101561160757602081810284810182015190860182015160009081526005909252604090912080548290039055919091019061160081611f71565b90506115c2565b506006805491909103905550505050565b611620610d86565b6109c08484848480518251146116565781518151604051635b05999160e01b81526004810192909252602482015260440161060e565b3360005b8351811015611765576020818102858101820151908501909101516001600160a01b0388161561170d576000828152602081815260408083206001600160a01b038c168452909152902054818110156116e6576040516303dee4c560e01b81526001600160a01b038a16600482015260248101829052604481018390526064810184905260840161060e565b6000838152602081815260408083206001600160a01b038d16845290915290209082900390555b6001600160a01b03871615611752576000828152602081815260408083206001600160a01b038b1684529091528120805483929061174c90849061204a565b90915550505b50508061175e90611f71565b905061165a565b5082516001036117e65760208301516000906020840151909150856001600160a01b0316876001600160a01b0316846001600160a01b03167fc3d58168c5ae7397731d063d5bbf3d657854427343f4c083240f7aacaa2d0f6285856040516117d7929190918252602082015260400190565b60405180910390a4505061092d565b836001600160a01b0316856001600160a01b0316826001600160a01b03167f4a39dc06d4c0dbc64b70af90fd698a233a518aa5d07e595d983b8c0526c8f7fb86866040516106e492919061205d565b80356001600160a01b038116811461184c57600080fd5b919050565b6000806040838503121561186457600080fd5b61186d83611835565b946020939093013593505050565b6001600160e01b031981168114610a3057600080fd5b6000602082840312156118a357600080fd5b81356118ae8161187b565b9392505050565b6000602082840312156118c757600080fd5b5035919050565b6000815180845260005b818110156118f4576020818501810151868301820152016118d8565b506000602082860101526020601f19601f83011685010191505092915050565b6020815260006118ae60208301846118ce565b60008060006060848603121561193c57600080fd5b61194584611835565b95602085013595506040909401359392505050565b6000806000806080858703121561197057600080fd5b61197985611835565b966020860135965060408601359560600135945092505050565b634e487b7160e01b600052604160045260246000fd5b604051601f8201601f1916810167ffffffffffffffff811182821017156119d2576119d2611993565b604052919050565b600067ffffffffffffffff8211156119f4576119f4611993565b5060051b60200190565b600082601f830112611a0f57600080fd5b81356020611a24611a1f836119da565b6119a9565b82815260059290921b84018101918181019086841115611a4357600080fd5b8286015b84811015611a5e5780358352918301918301611a47565b509695505050505050565b60008060008060808587031215611a7f57600080fd5b611a8885611835565b935060208086013567ffffffffffffffff80821115611aa657600080fd5b611ab289838a016119fe565b95506040880135915080821115611ac857600080fd5b611ad489838a016119fe565b94506060880135915080821115611aea57600080fd5b508601601f81018813611afc57600080fd5b8035611b0a611a1f826119da565b81815260059190911b8201830190838101908a831115611b2957600080fd5b928401925b82841015611b4757833582529284019290840190611b2e565b979a9699509497505050505050565b600082601f830112611b6757600080fd5b813567ffffffffffffffff811115611b8157611b81611993565b611b94601f8201601f19166020016119a9565b818152846020838601011115611ba957600080fd5b816020850160208301376000918101602001919091529392505050565b600080600080600060a08688031215611bde57600080fd5b611be786611835565b9450611bf560208701611835565b9350604086013567ffffffffffffffff80821115611c1257600080fd5b611c1e89838a016119fe565b94506060880135915080821115611c3457600080fd5b611c4089838a016119fe565b93506080880135915080821115611c5657600080fd5b50611c6388828901611b56565b9150509295509295909350565b60008060408385031215611c8357600080fd5b82359150611c9360208401611835565b90509250929050565b60008060408385031215611caf57600080fd5b823567ffffffffffffffff80821115611cc757600080fd5b818501915085601f830112611cdb57600080fd5b81356020611ceb611a1f836119da565b82815260059290921b84018101918181019089841115611d0a57600080fd5b948201945b83861015611d2f57611d2086611835565b82529482019490820190611d0f565b96505086013592505080821115611d4557600080fd5b50611d52858286016119fe565b9150509250929050565b600081518084526020808501945080840160005b83811015611d8c57815187529582019590820190600101611d70565b509495945050505050565b6020815260006118ae6020830184611d5c565b600080600060608486031215611dbf57600080fd5b611dc884611835565b9250602084013567ffffffffffffffff80821115611de557600080fd5b611df1878388016119fe565b93506040860135915080821115611e0757600080fd5b50611e14868287016119fe565b9150509250925092565b60008060408385031215611e3157600080fd5b611e3a83611835565b915060208301358015158114611e4f57600080fd5b809150509250929050565b60008060408385031215611e6d57600080fd5b50508035926020909101359150565b60008060408385031215611e8f57600080fd5b611e9883611835565b9150611c9360208401611835565b600080600080600060a08688031215611ebe57600080fd5b611ec786611835565b9450611ed560208701611835565b93506040860135925060608601359150608086013567ffffffffffffffff811115611eff57600080fd5b611c6388828901611b56565b600181811c90821680611f1f57607f821691505b602082108103611f3f57634e487b7160e01b600052602260045260246000fd5b50919050565b634e487b7160e01b600052603260045260246000fd5b634e487b7160e01b600052601160045260246000fd5b600060018201611f8357611f83611f5b565b5060010190565b6001600160a01b03868116825285166020820152604081018490526060810183905260a060808201819052600090611fc4908301846118ce565b979650505050505050565b600060208284031215611fe157600080fd5b81516118ae8161187b565b6001600160a01b0386811682528516602082015260a06040820181905260009061201890830186611d5c565b828103606084015261202a8186611d5c565b9050828103608084015261203e81856118ce565b98975050505050505050565b8082018082111561047957610479611f5b565b6040815260006120706040830185611d5c565b82810360208401526120828185611d5c565b9594505050505056fe9f2df0fed2c77648de5860a4cc508cd0818c85b8b8a1ab4ceeef8d981c8956a6a264697066735822122035a598a0427827e55286538b7b24722a22897ecec8d184e0572fdfb63a152e0c64736f6c6343000814003368747470733a2f2f6170692e6d32746f6b656e2e636f6d2f6d657461646174612f7b69647d2e6a736f6e",
  "linkReferences": {},
  "deployedLinkReferences": {}
}